:020000040800F2
:1000000010040020DD010008A10A00089D0A000874
:100010009F0A0008E9020008210B00080000000008
:10002000000000000000000000000000C50A0008F9
:10003000EB02000800000000C30A0008C70A00081D
:10004000F7010008F7010008F7010008F7010008B0
:10005000F7010008F7010008F7010008F7010008A0
:10006000F7010008F7010008F7010008F701000890
:10007000F7010008F7010008F7010008F701000880
:10008000F7010008F7010008F70100080000000070
:10009000000000000000000000000000F701000860
:1000A000F7010008F7010008F7010008F701000850
:1000B000000000000000000000000000F701000840
:1000C000F7010008F7010008F7010008F701000830
:1000D000F7010008F7010008F70100080000000020
:1000E000F7010008F7010008000000000000000010
:1000F000000000000000000000000000F701000800
:100100000000000000000000F701000800000000EF
:100110000000000000000000F701000800000000DF
:10012000F7010008F7010008F7010008F7010008CF
:10013000F7010008000000000000000000000000BF
:1001400000000000000000000000000000000000AF
:10015000F7010008F7010008F7010008F70100089F
:10016000000000000000000000000000000000008F
:10017000000000000000000000000000000000007F
:10018000F7010008F701000800000000000000006F
:1001900000000000F701000800000000000000005F
:1001A000000000000000000000000000000000004F
:1001B000000000000000000000000000F70100083F
:1001C000F7010008F7010008DFF80CD000F07AF81A
:1001D00000480047FD0C0008100400200648804736
:1001E00006480047FEE7FEE7FEE7FEE7FEE7FEE71C
:1001F000FEE7FEE7FEE7FEE7CD0A0008C9010008BA
:100200002DE9F05F0546002092469B46884606464B
:10021000814640241BE0284641464746224600F0DE
:1002200041F853465A46C01A914110D31146184618
:10023000224600F028F82D1A67EB01084F462246A7
:100240000120002100F01FF817EB00094E41201E8D
:10025000A4F10104DFDC484631462A464346BDE8A6
:10026000F09FD2B201E000F8012B491EFBD270478B
:100270000022F6E710B513460A4604461946FFF772
:10028000F0FF204610BD202A04DB203A00FA02F1DC
:10029000002070479140C2F1200320FA03F3194374
:1002A00090407047202A04DB203A21FA02F0002116
:1002B000704721FA02F3D040C2F120029140084376
:1002C00019467047064C074D06E0E06840F0010310
:1002D00094E8070098471034AC42F6D3FFF778FF54
:1002E000B80D0008D80D0008FEE7704770B5044649
:1002F00000F0D2F80546601C02D00448007804449F
:1003000000F0CAF8401BA042FAD370BD00000020E4
:100310002DE9F84FDFF84CB100224FF001084FF003
:10032000030A4FF00F090BF1040E00BF0B6808FA27
:1003300002F42340A3427DD14D68022D01D0122D3D
:100340000ED1D50800EB850CDCF820505607F70ECF
:1003500009FA07F6B5430E69BE402E43CCF820607B
:10036000066855000F790AFA05FC07F0030726EA2C
:100370000C06AF40374307604E68012E05D0022EB1
:1003800003D0112E01D0122E0ED18768CE6827EA35
:100390000C07AE403E4386604668A6430C79C4F322
:1003A0000014944034434460C4688E6824EA0C040A
:1003B000AE402643C6604C68E4004DD52A4C256803
:1003C00045F480452560246822F0030504F4804448
:1003D0000094264C2E19D6F8084895072F0F09FAD5
:1003E00007F5AC43224DA84201D100250AE0214D7A
:1003F000A84201D1012505E01F4DA84201D10225E7
:1004000000E00725BD402543C6F80858DBF800404A
:100410005D464E689C43F60300D51C432C60DEF815
:10042000004075464E689C43B60300D51C432C60C3
:100430000C4D00E010E008352C684E689C43F60235
:1004400000D51C432C60074D0C352C684E689C432E
:10045000B60200D51C432C60521C102AFFF466AF74
:10046000BDE8F88F003C01404438024000300140B4
:1004700000000240000402400008024000690840F9
:1004800000D00120704742694A40426170470AB17A
:10049000816170470904FBE70148806870470000EC
:1004A0000000002002488168027811448160704792
:1004B000000000200B4810B5016841F40071016094
:1004C000016841F480610160016841F4807101605C
:1004D000032000F061F8002000F006F800F024F896
:1004E000002010BD003C024070B50D4D04464FF495
:1004F0007A712878B1FBF0F00A490968B1FBF0F095
:1005000000F0B8FA48B9102C07D200222146501E3C
:1005100000F022F800206C6070BD012070BD00006A
:10052000000000200C0000200A4808B5016841F4D2
:1005300080410160006800F4804000900548001F81
:10054000016841F080510160006800F08050009027
:1005500008BD000044380240F0B40E4B1B680C4646
:10056000C3F30223C3F10705042D00D90425191D87
:10057000072901D2002300E0DB1E012606FA05F15F
:10058000491E214099409E40761E16403143F0BCE2
:1005900000F087BA0CED00E0064900F00702086899
:1005A0004FF6FF03184040EA0220034A1043086058
:1005B000704700000CED00E00000FA052DE9F0475F
:1005C0000E46050065D0DFF81481D8F80000F7B2B8
:1005D00000F00F00B04207D288F80070D8F8000091
:1005E00000F00F00B04254D128683D4C810712D56D
:1005F000400703D5206840F4E050206028780007C9
:1006000003D5206840F4604020602068A96820F08D
:10061000F000084320602878C0072DD03049686872
:100620000839012812D0022813D0032811D00968F4
:10063000890700292DDA216821F003010143216097
:10064000FFF72AFF814641F2883A0EE009688903E4
:10065000EFE709688901ECE7FFF71EFFA0EB09014E
:10066000514502D90320BDE8F0872068696800F091
:100670000C00B0EB810FEFD1D8F80010404601F02C
:100680000F01B14207D90770006800F00F00B042B7
:1006900001D00120E7E72878400705D52068E96800
:1006A00020F4E050084320602878000706D5206831
:1006B000296920F4604040EAC100206000F016F88B
:1006C0002168084AC1F30311515CC840064908601B
:1006D0000020FFF709FF0020C5E70000003C0240B2
:1006E00008380240A80D00080C000020154810B57D
:1006F000006810F00C02144813D01449042A0FD0DB
:10070000082A0ED10F4C241F2268236802F03F02F2
:100710005B0207D52068C0F38810A0FB010106E04A
:10072000084610BD2168C1F38811A1FB0001002318
:10073000FFF766FD2168C1F30141491C4900B0FB88
:10074000F1F010BD083802400024F40040787D012B
:100750002DE9F84F05460078DFF800B3C04CC0071C
:100760004AD0DBF800105846C1F38101012908D0B6
:100770000068C0F3810002280AD1201D00684002F1
:1007800006D52068800337D56868002872D033E02A
:100790006868B0F5803F10D0B0F5A02F206810D069
:1007A00020F480302060206820F480202060686879
:1007B000A8B1FFF771FE06460DE0206840F48030D6
:1007C000F4E740F480202060F7E700BFFFF764FE05
:1007D000801B64286FD820688003F7D50CE0FFF7F2
:1007E0005BFE064605E000BFFFF756FE801B64284F
:1007F000F0D820688003F7D42878DFF86882800773
:100800004FF0000940D5DBF80010584611F00C0FEE
:1008100009D00068C0F3810002280BD18F48001F67
:100820000068400206D42068800715D5E8680128D2
:1008300020D111E0E868B8B10120C8F80000FFF746
:100840002BFE064605E000BFFFF726FE801B0228B0
:10085000C0D820688007F7D52068296920F0F80003
:1008600040EAC10020600FE0C8F80090FFF714FED6
:10087000064606E0EFE000BFFFF70EFE801B0228F1
:1008800019D820688007F7D42878000722D5734E3E
:10089000754869696C3679B101210160FFF7FCFD8B
:1008A000074604E0FFF7F8FDC01B022803D83068B4
:1008B0008007F7D50EE089E0C0F80090FFF7ECFD67
:1008C000074604E0FFF7E8FDC01B02287ED8306829
:1008D0008007F7D42878400768D5DFF880A1002783
:1008E0000AF1380ADAF80000C0000BD4DAF8001078
:1008F00041F08051CAF80010DAF80000012700F03A
:1009000080500090594E3068C00510D4306840F4D3
:1009100080703060FFF7C0FD009005E0FFF7BCFD80
:100920000099401A022851D83068C005F6D54B4EC0
:10093000A868683601280FD00528306810D020F04C
:1009400001003060306820F004003060A868B8B161
:10095000FFF7A2FD00900FE0306840F00100F4E7DF
:1009600040F004003060F7E7FFF796FD0099411A68
:1009700041F28830814266D830688007F4D50EE0B5
:10098000FFF78AFD009007E0FFF786FD0099411A06
:1009900041F28830814256D830688007F4D42FB1B4
:1009A000DAF8001021F08051CAF80010A869D0B31D
:1009B000DBF80010C1F3810102294CD0022848461F
:1009C00007D0C8F86000FFF767FD00E03BE0054690
:1009D0003CE04746C8F86000FFF75EFD064604E0CD
:1009E000FFF75AFD801B02282DD820688001F7D41C
:1009F000F5E907010843E9681D4A490802EB01418E
:100A0000AA6841EA82110843297C40EA0160297DF5
:100A100040EA01711148001F016001203866FFF7AC
:100A20003BFD054605E014E0FFF736FD401B0228BC
:100A300009D820688001F7D50BE000BFFFF72CFD37
:100A4000401B022802D90320BDE8F88F20688001EE
:100A5000F4D40020F8E70120F6E70000083802404F
:100A60000038024000004742800E474200700040BC
:100A70000000FFFF10B5401EB0F1807F01D30120C0
:100A800010BD4FF0E02460610F21601700F009F8FD
:100A90000020A06107202061002010BDFEE7FEE7D6
:100AA00070470907090E002806DA00F00F0000F170
:100AB000E02080F8141D704700F1E02080F8001459
:100AC000704770477047FFF7EDBC000010480168A1
:100AD00041F4700101600F48016841F001010160BB
:100AE0000C4A00210832116002680B4B1A40026068
:100AF000031D0A4A1A60026822F480220260054837
:100B00000C300160024958068039086070470000C7
:100B100088ED00E000380240FFFFF6FE10300024B0
:100B2000FEE7000010B594B034216846FFF7A0FB43
:100B300014210DA8FFF79CFB14480024016841F024
:100B400080510160006800F08050129010480168E8
:100B500041F4404101600068069400F44040129066
:100B60000220009001200390102004906846FFF7B7
:100B7000EFFD0F20CDE90D040F94109400210DA876
:100B80001194FFF71BFD14B010BD00004038024067
:100B90000070004000214176416101744174782267
:100BA00042814FF4FA7282814FF4C872C281017699
:100BB0008176704770B50446407E98B92189606897
:100BC000FFF75CFC48B10021207EA27E50408142AC
:100BD000207804D040F0010003E00121F4E720F088
:100BE0000100207020784FF00005C1071DD080075C
:100BF00037D4FFF751FC6169401A6189884211D3EB
:100C0000207840F002002070207C401C2074FFF708
:100C100043FC6061207840F040002070607840F034
:100C2000010060702078C00716D1207881072DD58B
:100C300020F0060040F020002070FFF72DFC6061DE
:100C4000207820F0800020706078C10704D020F068
:100C5000010040F0020060702078810716D5C007BF
:100C600014D0FFF719FC6169401AA18988420DD39D
:100C7000207841070AD4257440F0940020706078F1
:100C800020F001006070FFF707FC6061FFF704FCD3
:100C90006169401AA189884208D3207C002805D0C8
:100CA00060742574207840F00800207070BD407C8E
:100CB000704701780A0704D521F00801017001206E
:100CC00070470020704730B50446039D41600281A3
:100CD000FFF760FFA3762576204630BD02E008C806
:100CE000121F08C1002AFAD170477047002001E0A6
:100CF00001C1121F002AFBD1704700008EB0FFF720
:100D0000D9FBFFF70FFF142108A8FFF7B1FA244819
:100D10000024016841F0010101600068214E00F0EB
:100D200001000090224620213046FFF7B0FB202032
:100D300008900120CDE9090408A930460B94FFF77B
:100D4000E7FA7515CDE9085408A930460A94FFF76B
:100D5000DFFA01232A46314601A80094FFF7B3FFCA
:100D600001A8FFF727FF01A8FFF7A3FF90B101A893
:100D7000FFF79DFF0546002408E020213046FFF7DD
:100D800082FBC820FFF7B2FA641CE4B2B4EB450F53
:100D9000E6D2F2E7002220213046FFF778FBDFE7BA
:100DA0003038024000000240000000000000000057
:100DB0000102030406070809D80D000800000020FE
:100DC00010000000DC0C0008E80D000810000020F6
:100DD00000040000EC0C00080100000010000000FE
:080DE000000000000024F400F3
:04000005080001C925
:00000001FF
